:040000005CEF05F0BC
:10080000004C656420313A20456E63656E6469640E
:100810006F0D0A004C656420323A20456E63656EA8
:100820006469646F0D0A004C656420313A204170A0
:10083000616761646F0D0A004C656420323A2041A3
:1008400070616761646F0D0A00000F0EC11293940E
:1008500093968A948A96800E0E6E250E0F6E000E69
:10086000106E000E116EDEEC04F043EC05F002BEDB
:1008700042EF04F0025008E10104D8A042EF04F076
:1008800044EF04F035EF04F030EC05F01A6E6DEF34
:1008900004F08A84010E026E080E036E15EC05F05A
:1008A00035EF04F08A94270E026E080E036E15ECE5
:1008B00005F035EF04F08A86140E026E080E036E02
:1008C00015EC05F035EF04F08A96380E026E080E2E
:1008D000036E15EC05F035EF04F01A50186E196A26
:1008E0001950000AD8B477EF04F035EF04F018502F
:1008F000610AD8B449EF04F0030AD8B452EF04F007
:10090000010AD8B45BEF04F0070AD8B464EF04F02E
:1009100035EF04F000EF00F0000E096E000E0A6ED5
:10092000000E0B6E000E0C6E05500610071008101E
:10093000D8B49DEF04F09FEF04F0D5EF04F0010E62
:100940000D6EA9EF04F0D890053606360736083646
:100950000D2A08AEAEEF04F0B0EF04F0A3EF04F000
:10096000D89009360A360B360C360550015C065015
:1009700002580750035808500458D8A0C2EF04F09A
:10098000C4EF04F0CDEF04F00550015E0650025AAA
:100990000750035A0850045A0980D8900832073289
:1009A000063205320D2EB0EF04F009C001F00AC086
:1009B00002F00BC003F00CC004F01200949C948E63
:1009C000240EAC6E900EAB6E000EB86EB886000EA4
:1009D000016E6C0E026EDC0E036E020E046E0EC013
:1009E00012F00FC013F010C014F011C015F0020E79
:1009F000D8901236133614361536E82EF8EF04F078
:100A000012C005F013C006F014C007F015C008F0BE
:100A10008CEC04F0FF0E0124166EFF0E0220176E00
:100A200016C0AFFF1750B06E120021EF05F002C0E4
:100A3000F6FF03C0F7FF0800F55051EC05F0024A3D
:100A4000032A02C0F6FF03C0F7FF0800F5500009B3
:100A5000D8A42DEF05F02FEF05F017EF05F01200E9
:100A60009EAA35EF05F037EF05F030EF05F0ABA2A9
:100A70003CEF05F03EEF05F040EF05F0AB98AB889A
:100A80009E9AAE5012009EBA48EF05F04CEF05F06A
:100A9000036A032A4DEF05F0036A0350016E026AF0
:100AA0001200016EACA257EF05F059EF05F052EFBE
:100AB00005F001C0ADFF12001A6A000EF86E0001C9
:040AC00025EF04F02A
:020000040020DA
:08000000FFFFFFFFFFFFFFFF00
:020000040030CA
:0E000000210E191EFF8181FF0FC00FE00F407F
:00000001FF
