:0400000007EF00F016
:100008003C82A3ED01F017EF02F0000E166E14BE4D
:1000180012EF00F010EF00F01CEF00F0141E131E9A
:10002800121E116C000E122213221422010E166EDB
:1000380010BE23EF00F021EF00F02DEF00F0101EAE
:100048000F1E0E1E0D6C000E0E220F221022010E26
:10005800161A000E176E000E186E000E196E000E9E
:100068001A6E1150121013101410D8B43EEF00F08D
:1000780040EF00F076EF00F0010E156E4AEF00F049
:10008800D8901136123613361436152A14AE4FEF9F
:1000980000F051EF00F044EF00F0D8901736183612
:1000A80019361A3611500D5C12500E5813500F584D
:1000B80014501058D8A063EF00F065EF00F06EEF11
:1000C80000F011500D5E12500E5A13500F5A145072
:1000D800105A1780D8901432133212321132152E5A
:1000E80051EF00F01650D8B47CEF00F07EEF00F02E
:1000F80086EF00F01A1E191E181E176C000E182223
:1001080019221A2217C00DF018C00EF019C00FF0EE
:100118001AC010F01200000E066E04BE98EF00F030
:1001280096EF00F09EEF00F0036C041ED8B0042A8E
:10013800010E066E02BEA5EF00F0A3EF00F0ABEFD4
:1001480000F0016C021ED8B0022A010E061A000E39
:10015800086E000E076E03500410D8B4B6EF00F016
:10016800B8EF00F0E0EF00F0010E056EC0EF00F010
:10017800D89003360436052A04AEC5EF00F0C7EF61
:1001880000F0BCEF00F0D890073608360350015C49
:1001980004500258D8A0D3EF00F0D5EF00F0DAEF02
:1001A80000F00350015E0450025A0780D8900432D0
:1001B8000332052EC7EF00F00650D8B4E6EF00F082
:1001C800E8EF00F0ECEF00F0076C081ED8B0082A42
:1001D80007C001F008C002F012000E0E22EC02F077
:1001E8000AEC02F0000ED6EC01F001C02FF002C0BC
:1001F80030F02FC01BF030C01CF0000E1CBEFF0EEC
:100208001D6E1E6E000E1F6E000E206E000E216EFB
:10021800000E226EFF0E236E030E246E000E256E56
:10022800000E266E000E276E000E286E000E296E38
:10023800000E2A6EB40E2B6E000E2C6E000E2D6E64
:10024800000E2E6E31EC01F01B50316E3150F9EC7E
:1002580001F0F6EF00F007EF00F01F501B5C016E95
:1002680020501C58026E21501D58036E22501E58F3
:10027800046E27502B5C056E28502C58066E2950AA
:100288002D58076E2A502E58086E6EEC01F001C0EA
:100298000DF002C00EF003C00FF004C010F01F50A4
:1002A800235C116E20502458126E21502558136E6D
:1002B80022502658146E09EC00F027500D241B6EAE
:1002C80028500E201C6E29500F201D6E2A50102019
:1002D8001E6E1200000E096E000E0A6E000E0B6EE6
:1002E800000E0C6E01A07BEF01F07DEF01F085EFB1
:1002F80001F00550092606500A2207500B22085023
:100308000C22D8900536063607360836D8900432BF
:100318000332023201320150021003100410D8A433
:1003280098EF01F09AEF01F076EF01F009C001F0C3
:100338000AC002F00BC003F00CC004F01200060063
:10034800F2A4A9EF01F0ABEF01F0D4EF01F0010E38
:100358003A243A6E000E3B203B6EEB0E3A5C010EDF
:100368003B58D8A0BAEF01F0BCEF01F0C0EF01F0A4
:10037800000E3B6E000E3A6E32503A5C000E3B584F
:10038800D8B0C9EF01F0CBEF01F0CEEF01F08C80CF
:10039800CFEF01F08C90000ED76E320ED66EF2942D
:1003A8003C921100036E0D0E0364DDEF01F0DFEFE8
:1003B80001F0E5EF01F0000E026E000E016EF8EF9D
:1003C80001F0000EC26E0344E846FC0BC26EC28008
:1003D800C282C2B2F2EF01F0F4EF01F0EDEF01F0EA
:1003E800C3CF01F0C4CF02F01200096E09502E0DE0
:1003F800F3CF01F0F4CF02F0000E046EB40E036EDA
:100408008FEC00F001500E0F326E120095908C9018
:10041800F28EF28AF294500ED56ED58E000ED76EFB
:10042800320ED66E120000EE32F00A0EEE6AE806C0
:10043800FDE13C903C920001F1EF00F0016E01C03B
:0C044800C1FF000EC26E8F0EC06E1200CD
:020000040020DA
:08000000FFFFFFFFFFFFFFFF00
:020000040030CA
:0E000000210E191EFF8181FF0FC00FE00F407F
:00000001FF
