:040000001FEF09F0F5
:1008000000414443204348303A202575202C2041A4
:100810004443204348313A2025750D0A0000000169
:1008200065BF15EF04F017EF04F018EF04F06693BE
:1008300065BF25EF04F0655106E16405D8B023EFEC
:1008400004F025EF04F02BEF04F0000E2F6E010EE4
:100850002E6E2FEF04F064C02EF065C02FF062C042
:1008600030F063C031F01EC032F01FC033F020C042
:1008700034F021C035F022C036F023C037F024C058
:1008800038F025C039F0000E3B6E1F0E3A6E000E98
:10089000876FC1EF04F03A06D8A03B06680E3A24F1
:1008A000D96E000E3B20DA6E32C001F033C002F088
:1008B00034C003F035C004F036C005F037C006F090
:1008C00038C007F039C008F00A0E096E000E0A6E33
:1008D000000E0B6E000E0C6E000E0D6E000E0E6EF6
:1008E000000E0F6E000E106E51EC06F001C026F0E7
:1008F00002C027F003C028F004C029F005C02AF088
:1009000006C02BF007C02CF008C02DF02650300F89
:10091000DF6E2E06D8A02F063006D8A0310632C0D2
:1009200001F033C002F034C003F035C004F036C02B
:1009300005F037C006F038C007F039C008F00A0EDD
:10094000096E000E0A6E000E0B6E000E0C6E000E8D
:100950000D6E000E0E6E000E0F6E000E106ED9ECB6
:1009600005F001C032F002C033F003C034F004C01F
:1009700035F005C036F006C037F007C038F008C0C3
:1009800039F03A503B10D8B4C8EF04F0CAEF04F085
:10099000FBEF04F03250331034103510361037109E
:1009A00038103910D8A4D7EF04F0D9EF04F04BEF8A
:1009B00004F02FBEE6EF04F02F5006E12E04D8B06D
:1009C000E4EF04F0E6EF04F04BEF04F031BEF1EF9A
:1009D00004F0315008E13004D8A0F1EF04F0F3EF57
:1009E00004F0FBEF04F0000166B3F9EF04F0FBEF55
:1009F00004F04BEF04F01CC011F01DC012F0680EA3
:100A00003A24136E000E3B20146E30C015F031C036
:100A100016F01EEC07F011C01CF012C01DF0120001
:100A20003EC0D9FF3FC0DAFFDECFF6FFDDCFF7FFD4
:100A30000800F550250AD8A420EF05F022EF05F0B4
:100A4000BDEF05F03EC0D9FF3FC0DAFFDE2A000E41
:100A5000DD22000E0001636F000E626F62C066F05F
:100A600063C067F0646965693EC0D9FF3FC0DAFFC3
:100A7000DECFF6FFDDCFF7FF0800F550750AD8A4EA
:100A800044EF05F046EF05F087EF05F03EC0D9FFD3
:100A90003FC0DAFFDE2A000EDD2240C0D9FF41C090
:100AA000DAFFDFCF42F0020EDE26DFCF43F0000E8A
:100AB000DD2242C0D9FF43C0DAFFDECF44F0DDCFF4
:100AC00045F044C046F045C047F0486A496A4A6A62
:100AD0004B6A4C6A4D6A3CC01CF03DC01DF046C0DC
:100AE0001EF047C01FF048C020F049C021F04AC0A6
:100AF00022F04BC023F04CC024F04DC025F00FEC89
:100B000004F01CC03CF01DC03DF0D8EF05F03EC025
:100B1000D9FF3FC0DAFFDECFF6FFDDCFF7FF0800D9
:100B2000F550250AD8A497EF05F099EF05F0B0EF3E
:100B300005F03EC0D9FF3FC0DAFFDE2A000EDD22FD
:100B4000000E026E250E016E3CC003F03DC004F0A5
:100B5000B9EC06F0000E3D6E010E3C6ED8EF05F0CC
:100B60003EC0D9FF3FC0DAFFDE2A000EDD22000EB4
:100B70003D6E000E3C6ED8EF05F03EC0D9FF3FC081
:100B8000DAFFDECFF6FFDDCFF7FF0800F550016E8C
:100B9000026A3CC003F03DC004F0B9EC06F03EC070
:100BA000D9FF3FC0DAFFDE2A000EDD22AAEF05F0F2
:100BB000120020EE11F0070EDE6AE806FDE2095091
:100BC0000A100B100C100D100E100F101010D8B4CE
:100BD000ECEF05F0EEEF05F040EF06F0010E196EB8
:100BE000FCEF05F0D89009360A360B360C360D3678
:100BF0000E360F361036192A10AE01EF06F003EF4D
:100C000006F0F2EF05F0D89011361236133614368E
:100C100015361636173618360950015C0A50025838
:100C20000B5003580C5004580D5005580E500658E0
:100C30000F50075810500858D8A021EF06F023EFA6
:100C400006F034EF06F00950015E0A50025A0B50CC
:100C5000035A0C50045A0D50055A0E50065A0F50A4
:100C6000075A1050085A1180D89010320F320E32A5
:100C70000D320C320B320A320932192E03EF06F014
:100C800011C001F012C002F013C003F014C004F050
:100C900015C005F016C006F017C007F018C008F020
:100CA000120009500A100B100C100D100E100F102E
:100CB0001010D8B45EEF06F060EF06F0A8EF06F073
:100CC000010E116E6EEF06F0D89009360A360B361B
:100CD0000C360D360E360F361036112A10AE73EF65
:100CE00006F075EF06F064EF06F00950015C0A505B
:100CF00002580B5003580C5004580D5005580E5014
:100D000006580F50075810500858D8A08AEF06F020
:100D10008CEF06F09CEF06F00950015E0A50025A73
:100D20000B50035A0C50045A0D50055A0E50065AD7
:100D30000F50075A1050085AD89010320F320E3206
:100D40000D320C320B320A320932112E75EF06F0D9
:100D500001C001F002C002F003C003F004C004F0BF
:100D600005C005F006C006F007C007F008C008F08F
:100D7000120003500410D8B4C0EF06F0C2EF06F022
:100D8000CBEF06F003500410D8A4C9EF06F0CBEF68
:100D900006F0D0EF06F001503FEC09F01DEF07F030
:100DA00020EE04F00350D9260450DA22DE50DE1083
:100DB000D8B4DDEF06F0DFEF06F0FAEF06F020EE34
:100DC00004F00350D9260450DA2210EE02F003504A
:100DD000E1260450E222DE50E65CE650800A096E0D
:100DE000DE50800A0958D8B0F8EF06F0FAEF06F0A6
:100DF0001DEF07F020EE02F00350D9260450DA224E
:100E0000DECF05F0DDCF06F003C0D9FF04C0DAFF66
:100E1000DECF07F0DDCF08F005500724D96E06506D
:100E20000820DA6E01C0DFFF20EE02F00350D92661
:100E30000450DA22DE2A000EDD221200000166A133
:100E400024EF07F026EF07F030EF07F013C00AF0A9
:100E500014C00BF011C00CF012C00DF0CAEC08F079
:100E600016BE35EF07F037EF07F03DEF07F015C07E
:100E70001AF016C01BF041EF07F0000E1B6E000EBB
:100E80001A6E000E196E000E186E53EF07F0000E6A
:100E9000026E200E016E11C003F012C004F0B9EC16
:100EA00006F0184A192A1A50185C1950800A176E51
:100EB0001B50800A1758D8A060EF07F062EF07F0C8
:100EC00047EF07F0000166B168EF07F06AEF07F03F
:100ED00074EF07F013C00AF014C00BF011C00CF04F
:100EE00012C00DF0CAEC08F013C001F014C002F0FB
:100EF000ECEC08F01A500124116E1B500220126E07
:100F00001200000E096E000E0A6E000E0B6E000E2F
:100F10000C6E0550061007100810D8B492EF07F0B9
:100F200094EF07F0CAEF07F0010E0D6E9EEF07F089
:100F3000D89005360636073608360D2A08AEA3EFD8
:100F400007F0A5EF07F098EF07F0D89009360A36BA
:100F50000B360C360550015C0650025807500358FA
:100F600008500458D8A0B7EF07F0B9EF07F0C2EF68
:100F700007F00550015E0650025A0750035A085008
:100F8000045A0980D89008320732063205320D2EF5
:100F9000A5EF07F009C001F00AC002F00BC003F092
:100FA0000CC004F012000D0E37EC09F0800E0E6E2E
:100FB000250E0F6E000E106E000E116E16EC08F06E
:100FC000000EA7EC08F001C0AEF002C0AFF0010EB9
:100FD000A7EC08F001C0B0F002C0B1F0880E566E68
:100FE000000E576E010E586E080E596EAEC05AF0C4
:100FF000AFC05BF0B0C05CF0B1C05DF07EEC08F05B
:10100000880E026E000E036E07EC09F0070E5F6E8D
:10101000170E5E6E6A0EE82EFED75E2EFCD75F2E90
:10102000FAD700D0E0EF07F000EF00F0949C948E28
:10103000240EAC6E900EAB6E000EB86EB886000E2D
:10104000016E6C0E026EDC0E036E020E046E0EC09C
:1010500012F00FC013F010C014F011C015F0020E02
:10106000D8901236133614361536E82E30EF08F0C5
:1010700012C005F013C006F014C007F015C008F048
:1010800081EC07F0FF0E0124166EFF0E0220176E92
:1010900016C0AFFF1750B06E120050C054F051C0D0
:1010A00055F0000E0001616F000E606F6BEF08F0ED
:1010B0004EC03CF04FC03DF0540E3E6E000E3F6EF1
:1010C00052C040F053C041F010EC05F03C5000011C
:1010D00060273D50612354C0F6FF55C0F7FF08005C
:1010E000F5500009D8A477EF08F079EF08F058EF31
:1010F00008F060C04EF061C04FF012005A0E0001BF
:10110000A66F000EA76F56C0A8F057C0A9F0000E3A
:10111000AB6F000EAA6F000EAD6F000EAC6FA80E85
:101120004E6E000E4F6E58C050F059C051F0A60ED2
:10113000526E000E536E4DEC08F00001AA51562479
:10114000D96EAB515720DA6E000EDF6E1200036EBF
:101150000D0E0364AEEF08F0B0EF08F0B6EF08F044
:10116000000E026E000E016EC9EF08F0000EC26E96
:101170000344E846FC0BC26EC280C282C2B2C3EF17
:1011800008F0C5EF08F0BEEF08F0C3CF01F0C4CF00
:1011900002F01200000E106E000E0F6EDBEF08F072
:1011A0000EC001F0026A0CC003F00DC004F0B9ECEF
:1011B00006F00F4A102A0F500A24D96E10500B2047
:1011C000DA6EDF500E6E0E50D8A4E9EF08F0EBEFA8
:1011D00008F0D0EF08F0120001C003F002C004F0E4
:1011E000F4EF08F0014A022A01C0D9FF02C0DAFF79
:1011F000DF50D8A4FEEF08F000EF09F0F2EF08F09E
:101200000350015C016E04500258026E120012EF8E
:1012100009F002C0D9FF03C0DAFFDF502CEC09F05F
:10122000024A032A02C0D9FF03C0DAFFDF50D8A464
:101230001CEF09F01EEF09F009EF09F0120000EEB3
:1012400060F0460EEE6AE806FDE1000EF86E080E4C
:10125000F76E0001D3EF07F0016EACA232EF09F098
:1012600034EF09F02DEF09F001C0ADFF1200016E5F
:1012700001C0C1FF000EC26E8F0EC06E12001200C0
:020000040020DA
:08000000FFFFFFFFFFFFFFFF00
:020000040030CA
:0E000000210E191EFF8181FF0FC00FE00F407F
:00000001FF
