:040000000CEF05F00C
:10080000004461746F20726563696269646F3A20A5
:05081000000D0A0000CC
:10081600000E096E000E0A6E000E0B6E000E0C6EB8
:100826000550061007100810D8B41CEF04F01EEF90
:1008360004F054EF04F0010E0D6E28EF04F0D8908A
:1008460005360636073608360D2A08AE2DEF04F0B3
:100856002FEF04F022EF04F0D89009360A360B3653
:100866000C360550015C06500258075003580850D4
:100876000458D8A041EF04F043EF04F04CEF04F025
:100886000550015E0650025A0750035A0850045A92
:100896000980D89008320732063205320D2E2FEF26
:1008A60004F009C001F00AC002F00BC003F00CC04E
:1008B60004F01200949C948E240EAC6E900EAB6ED7
:1008C600000EB86EB886000E016E6C0E026EDC0E5F
:1008D600036E020E046E0EC012F00FC013F010C0AD
:1008E60014F011C015F0020ED890123613361436D5
:1008F6001536E82E77EF04F012C005F013C006F0A7
:1009060014C007F015C008F00BEC04F0FF0E01242C
:10091600166EFF0E0220176E16C0AFFF1750B06E90
:1009260012000F0EC112800E0E6E250E0F6E000EF7
:10093600106E000E116E5DEC04F0F3EC04F002BED6
:10094600ADEF04F0025008E10104D8A0ADEF04F0C9
:10095600AFEF04F0A0EF04F0E0EC04F0186E010E27
:10096600026E080E036EC5EC04F0185001EC05F09B
:10097600110E026E080E036EC5EC04F0A0EF04F033
:1009860000EF00F0D1EF04F002C0F6FF03C0F7FF5E
:100996000800F55001EC05F0024A032A02C0F6FFF2
:1009A60003C0F7FF0800F5500009D8A4DDEF04F0F6
:1009B600DFEF04F0C7EF04F012009EAAE5EF04F0A3
:1009C600E7EF04F0E0EF04F0ABA2ECEF04F0EEEF9B
:1009D60004F0F0EF04F0AB98AB889E9AAE5012008C
:1009E6009EBAF8EF04F0FCEF04F0036A032AFDEF69
:1009F60004F0036A0350016E026A1200016EACA293
:100A060007EF05F009EF05F002EF05F001C0ADFFB5
:100A16001200186A000EF86E080EF76E000194EFC9
:020A260004F0DA
:020000040020DA
:08000000FFFFFFFFFFFFFFFF00
:020000040030CA
:0E000000210E191EFF8181FF0FC00FE00F407F
:00000001FF
