:0400000007EF00F016
:1000080016826BED00F0EEEF00F0000E066E04BEF7
:1000180012EF00F010EF00F018EF00F0036C041E70
:10002800D8B0042A010E066E02BE1FEF00F01DEFC5
:1000380000F025EF00F0016C021ED8B0022A010E74
:10004800061A000E086E000E076E03500410D8B48E
:1000580030EF00F032EF00F05AEF00F0010E056EBD
:100068003AEF00F0D89003360436052A04AE3FEF85
:1000780000F041EF00F036EF00F0D8900736083670
:100088000350015C04500258D8A04DEF00F04FEF28
:1000980000F054EF00F00350015E0450025A07804C
:1000A800D89004320332052E41EF00F00650D8B440
:1000B80060EF00F062EF00F066EF00F0076C081EDA
:1000C800D8B0082A07C001F008C002F012000600E4
:1000D800F2A471EF00F073EF00F09CEF00F0010E56
:1000E8001424146E000E1520156EEB0E145C010E10
:1000F8001558D8A082EF00F084EF00F088EF00F0E8
:10010800000E156E000E146E0C50145C000E15587F
:10011800D8B091EF00F093EF00F096EF00F08C80EC
:1001280097EF00F08C90000ED76E320ED66EF294D8
:10013800169211000F0EC112E1EC00F0000ED0EC87
:1001480000F03D0E0B6EE10E0A6E400EE82EFED753
:100158000A2EFCD70B2EFAD75A0ED0EC00F03D0E23
:100168000B6EE10E0A6E400EE82EFED70A2EFCD763
:100178000B2EFAD7B40ED0EC00F03D0E0B6EE10E4C
:100188000A6E400EE82EFED70A2EFCD70B2EFAD7A1
:10019800A2EF00F007EF00F0096E09502E0DF3CF23
:1001A80001F0F4CF02F0000E046EB40E036E09ECF9
:1001B80000F001500E0F0C6E120095908C90F28E8C
:1001C800F28AF294500ED56ED58E000ED76E320E8E
:1001D800D66E120000EE0CF00A0EEE6AE806FDE19B
:0A01E8001690169200019EEF00F041
:020000040020DA
:08000000FFFFFFFFFFFFFFFF00
:020000040030CA
:0E000000210E191EFF8181FF0FC00FE00F407F
:00000001FF
