:10000000FE2F00308A000408840A820700340A3474
:100010000D345034723465346E346434693465346C
:100020006E3464346F3420344C346534643420349A
:10003000003400340A340D34413470346134673490
:1000400061346E3464346F3420344C346534643439
:1000500020340034003454344F344D343E34203492
:040060000034003434
:100C98006326700871040319522E532E4C2E8312AA
:100CA80003131A080800F00083160313981C5D2E1E
:100CB8005E2E582E700883120313990008008312C1
:100CC80003130C0EF200720C0139F300F4017308DF
:100CD800F0007408F1000800831203131F149F1416
:100CE8001F158316031386108501831203138501CC
:100CF8008316031386018312031386010030A300B1
:100D08000030A2002530A1008030A000A401A40A70
:100D18001C270800F500F301F401F301F4019F2EEC
:100D2800730875078400012057260130F30703185C
:100D3800F40A0030F4077408803AF2008030720236
:100D4800031DA82E710873020318AB2EAC2EB52E06
:100D58007308750784000120003A031DB42EB52ED0
:100D6800942E08000030FC000030FB000030FA0030
:100D78000030F90073087204710470040319C52E59
:100D8800C62E132FFD01FD0AD62E0130F8000310E0
:100D9800F00DF10DF20DF30DF80BCB2E0130F8002C
:100DA8007808FD07F31FD92EDA2EC92E0130F80076
:100DB8000310F90DFA0DFB0DFC0DF80BDC2E730872
:100DC8007702031DF12E72087602031DF12E7108B9
:100DD8007502031DF12E70087402031CF42EF52E03
:100DE800042F7008F4027108031C710FF5027208D1
:100DF800031C720FF6027308031C730FF7027914B1
:100E080001300310F30CF20CF10CF00CFF3E031D43
:100E1800052F0130FD02031D122F132FDA2E7C0837
:100E2800F3007B08F2007A08F1007908F000080066
:100E3800831203132408031D222F232F4C2F20086D
:100E4800A5002108A6002208A7002308A80006304C
:100E58000310A50DA60DA70DA80DFF3E031D2C2FF1
:100E68002808F3002708F2002608F1002508F000FA
:100E78000030F7003D30F6000930F5000030F4008E
:100E8800B6267008FF3E8316031399001811742FB5
:100E98002008A5002108A6002208A7002308A8000A
:100EA80004300310A50DA60DA70DA80DFF3E031DC8
:100EB800552F2808F3002708F2002608F100250816
:100EC800F0000030F7003D30F6000930F500003042
:100ED800F400B6267008FF3E831603139900181510
:100EE80018139816181298148312031398171813C6
:100EF800181618119810831603138614061508007F
:100F08007026831203130614861006151030A900E4
:100F18002908F10025308E2663267108803AFF00E3
:100F280080307F02031D9A2F01307002031C9D2F11
:100F38009E2F902F4C2683120313A9002908AB007B
:100F4800E12F1030A9002908F10001308E26831204
:100F580003130614902F1030A9002908F10014304B
:100F68008E26831203130610902F1030A90029082B
:100F7800F10001308E26831203138614902F10304F
:100F8800A9002908F10014308E2683120313861055
:100F9800902F1030A9002908F10001308E26831205
:100FA80003130615902F1030A9002908F1001430FA
:100FB8008E26831203130611902F2B08A900AA016D
:100FC8002A08003A0319E92F902F2908613A0319D2
:100FD800A52F033A0319AF2F013A0319B92F073A7E
:100FE8000319C32F013A0319CD2F033A0319D72F39
:080FF800902F00288301842FD3
:08400000FF3FFF3FFF3FFF3FC0
:02400E00503F21
:00000001FF
