:02000000FE2FD1
:100E5800F001F101831603130510851005118612A0
:100E680006138613811181120110811001110B11D3
:100E780083120313810107309F0028307006710424
:100E88000319472F482F562F513070067104031944
:100E98004E2F4F2F562F7A3070067104031D552F91
:100EA800562F5B2F831203138612061386130B1D0E
:100EB8005E2F5F2F682F0B117008013EF00071083C
:100EC8000318013E003EF1007B3070067104031DDB
:100ED8006E2F6F2F712FF001F101F11B742F752FF9
:100EE8009A2F7108803AFF0080307F02031D7E2F01
:100EF800283070020318812F822F9A2F8312031330
:100F08000511051085148510851485108514851024
:100F18008514851005148514851085148510051011
:100F28008514851005158616061386137108803AF0
:100F3800FF0080307F02031DA32F29307002031C9D
:100F4800A62FA72FCB2F7108803AFF0080307F0291
:100F5800031DB02F513070020318B32FB42FCB2FBD
:100F680083120313051105108514851005148514C3
:100F780085108514851085148510851485108514B1
:100F880085108514851005158612061786137108B5
:100F9800803AFF0080307F02031DD42F5230700248
:100FA800031CD72FD82F412F7108803AFF008030BB
:100FB8007F02031DE12F7A3070020318E42FE52F1A
:100FC800412F83120313051105108514851005148C
:100FD8008514851085148510851485108514851051
:100FE8008514851085148510051586120613861735
:080FF800412F002883012C2F7A
:08400000FF3FFF3FFF3FFF3FC0
:02400E00503F21
:00000001FF
