:020000000A28CC
:10000800FE00030EF1000A08F2003328642881304C
:10001800831606118614990018151812831298175A
:100028001816981283160C128C16181383121813AC
:10003800831698129816080000308A000408840A6B
:1000480082070034483465346C346C346F3420349F
:1000580057346F3472346C3464342134003483126E
:1000680003138C1E3D28981C3B28181218161A08D2
:100078005E2072088A00710E8300FE0E7E0E090053
:10008800F40074088400202000380319080074085C
:10009800840020205120F40A4528F30083120C1E06
:1000A80052287308990008000B20013044208B1750
:1000B8000B175D28F0000C1E5F28700899000800D7
:0400C8008301582830
:02400E0062FF4F
:00000001FF
