:020000000A28CC
:10000800FE00030EF0000A08F100812D0B2883136F
:10001800403084005D3097258301C22A8312031380
:100028002308A9002408AA002508AB0003102A0DFC
:100038002B0DAC002C08AD002D08031D2A2800301C
:10004800A3000030A4000030A50008002608A9007D
:100058002708AA002808AB0003102A0D2B0DAC00B6
:100068002C08B2003208031D40280030A3000030DD
:10007800A4000030A500080032087B3EA90029082A
:10008800AD072308A9002408AA002508AB001030F2
:100098000310AB0CAA0CA90CFF3E031D4C28290821
:1000A800AC002C08B2002608A9002708AA002808D6
:1000B800AB0010300310AB0CAA0CA90CFF3E031DBB
:1000C8005E282908AC002C08B2068030A90029084F
:1000D800B205A417A717FF30A605FF30A705003003
:1000E800A8050030AE000030AF000030B000073087
:1000F800A9002908B100231C8F282608AE07270865
:1001080003110318270A031DAF0728080311031852
:10011800280A031DB00701300310A50CA40CA30C7A
:10012800FF3E031D902801300310A60DA70DA80D52
:10013800FF3E031D98280130B102031D7F280930B6
:10014800A9002908B100231CB7282608AE072708EC
:1001580003110318270A031DAF0728080311031802
:10016800280A031DB00701300310A50CA40CA30C2A
:10017800FF3E031DB82801300310B00CAF0CAE0CC5
:10018800FF3E031DC0280130B102031DA7282E0819
:10019800F2002F08F3003008F4002D08A900290800
:1001A800F5003208AA002A08F600C0237208831254
:1001B8000313A3007308A4007408A50008008312A1
:1001C80003132308A6002408A7002508A800031085
:1001D800270D280DA9002908AE002E08031DFB28AD
:1001E8000030A0000030A1000030A2000800200864
:1001F800A6002108A7002208A8000310270D280D33
:10020800A9002908AF002F08031D11290030A000FC
:100218000030A1000030A20008000030AB00003020
:10022800AC000030AD0089302F07A6002608AE02CA
:100238002308A6002408A7002508A80010300310EA
:10024800A80CA70CA60CFF3E031D23292608A9000D
:100258002908AF002008A6002108A7002208A80046
:1002680010300310A80CA70CA60CFF3E031D35295F
:100278002608A9002908AF068030A6002608AF0581
:10028800A417FF30A305FF30A4050030A505A1176A
:10029800FF30A005FF30A1050030A2051830A600E8
:1002A8002608AA0001300310AB0DAC0DAD0DFF3EC2
:1002B800031D572922082502031D68292108240245
:1002C800031D682920082302031C75292008A3029E
:1002D8002108031C210FA4022208031C220AA502DC
:1002E8002B1401300310A30DA40DA50DFF3E031D13
:1002F80076290130AA02031D56292B08F2002C0882
:10030800F3002D08F4002E08A6002608F5002F0893
:10031800A7002708F600C023720883120313A00061
:100328007308A1007408A200080083120313AF0029
:100338002530A7002708AB000130A407FF302407A9
:1003480084000525A7002708B00030080319372ABC
:10035800253030060319BC293008A7002F0884006F
:100368002708831380000130A7002708AF07A029BA
:10037800AA01C329C030A7002708AA04D929013037
:10038800A407FF30240784000525B000A700A801B2
:100398002808003A0319D129A0292708003A031987
:1003A800372A753A0319BE29A0292B08840083131C
:1003B8000008AC00840A0008AD000230A700270836
:1003C800AB07B001B00A3008A7002707013E840038
:1003D8000525A8000525A90029082D02031DF629D1
:1003E80028082C02031C002A0130A7002708B007A0
:1003F80005303006031DE7293008A7002708AE009E
:10040800FF30A7002708AE072E0A0319A0290A30D3
:10041800A0000030A1002E08A7002707013E840095
:100428000525F2000525F3002D08F5002C08F40039
:100438002C24730883120313A3007208A200A224B9
:10044800831203132008303EA8002808B0003008A3
:10045800A7002F0884002708831380000130A70015
:100468002708AF07042A2F08840083138001080097
:1004780083120313A0002003031D5F2A76087F3E22
:10048800F7007708A3002308F70004300310F70CDF
:10049800FF3E031D4A2A7708F8007808A1002308C0
:1004A8000F39F7007708A20021086B258312031380
:1004B80022086B25080002302006031D802A7608D2
:1004C800BF3EF7007708A3002308F70004300310A5
:1004D800F70CFF3E031D6B2A7708F8007808A10087
:1004E80023080F39F7007708A20021086B2583122B
:1004F800031322086B25080003302006031DA12AD8
:100508007608933EF7007708A3002308F700043025
:100518000310F70CFF3E031D8C2A7708F8007808B3
:10052800A10023080F39F7007708A20021086B25DE
:100538008312031322086B25080004302006031DCC
:1005480008007608D33EF7007708A3002308F700D1
:1005580004300310F70CFF3E031DAD2A7708F8009E
:100568007808A10023080F39F7007708A2002108AE
:100578006B258312031322086B25080083160313C7
:1005880086158B170B170C15831203130C1190018A
:100598008E018F010530970010146824831203130D
:1005A80040034104031D122B3830A3008630A400F9
:1005B8003530A5004508A1004408A0005525831240
:1005C80003132008A6002108A7002208A80012206B
:1005D800831203132308DA002408DB002508DC0053
:1005E8000030A3008030A4003F30A5005A08A000C6
:1005F8005B08A1005C08A200E32083120313200813
:10060800B0002108B1002208B2004323831203136B
:100618003108C3003008C200C001C1019F25F6019E
:10062800F60A01303C22113083120313BE003E0843
:10063800A4004508A6004408A50046309921463084
:100648002125F601F60A02303C220B3083120313EF
:10065800BE003E08A4004308A6004208A500463094
:10066800992146302125823083120313BF00DD30E3
:10067800BE00BE0B3D2BBF0B3D2B0000D22A8312C0
:1006880003133008B4003108B5003208B60003106F
:10069800350D360DB7003708BD003D08031D5D2B2D
:1006A8000030B3000030B2000030B1000030B000BC
:1006B80008003008B4003108B5003208B600173019
:1006C8000310B60CB50CB40CFF3E031D642B3408A4
:1006D800B7003708B800B117FF30B005FF30B105D3
:1006E8000030B2053008B9003108BA003208BB0042
:1006F800BC018E30BD02BD1F962B3D08803A8F3E4F
:10070800031C542B01300310BC0CBB0CBA0CB90CE5
:10071800FF3E031D872B0130B4003408BD070319C1
:10072800A92B862B18303D020318542B3D080319BA
:10073800A92B0130B4000310B90DBA0DBB0DBC0DC7
:10074800B40B9F2B0130BD029A2B38080319B72B25
:10075800B909BA09BB09BC09B90A0319BA0A0319C4
:10076800BB0A0319BC0A3C08B3003B08B2003A08AC
:10077800B1003908B000080075080319C82B7408BF
:1007880073047204031DDB2B0030F2000030F30009
:100798000030F40008000130F7007708F507013051
:1007A8000310F40CF30CF20CFF3E031DD42BFE30A7
:1007B80074050319F62BCF2B0130F7007708F507DE
:1007C8000130F207003003180130F3070030031836
:1007D8000130F40701300310F40CF30CF20CFF3E67
:1007E800031DEF2BFF3074050319092CE02B023091
:1007F8007502031C0B2C0130F50201300310F20DB9
:10080800F30DF40DFF3E031D022CF31FFB2B75188F
:10081800132CFF30F2057F30F305FF30F405031089
:10082800F50C7508F700F801F90110300310F70D01
:10083800F80DF90DFF3E031D1A2C7708F20478080D
:10084800F3047908F404760803190800F41708007B
:10085800F701F801720873040319632CF901F90A06
:10086800F31B422C01300310F20DF30DFF3E031D64
:10087800372C0130F6007608F907342C01300310C4
:10088800F70DF80DFF3E031D432C73087502031D79
:100898004F2C72087402031C582C7208F402730857
:1008A800031CF503F502771401300310F30CF20C66
:1008B800FF3E031D592C0130F902031D422C780814
:1008C800F3007708F2000800831603130610861059
:1008D800061286120613861300303B251A30F700DD
:1008E800F830F600F60B762CF70B762C0000033068
:1008F8006B250730F7007D30F600F60B812CF70BDF
:10090800812C03306B250F30F7004730F600F60BCB
:100918008B2CF70B8B2C902C03306B2502306B251E
:1009280002306B2508306B2500306B250C306B25A9
:1009380000306B2506306B259F25080083120313B2
:10094800200821040319D12CFB01FB0AA11BB82C98
:1009580001300310A00DA10DFF3E031DAD2C013089
:10096800FA007A08FB07AA2C21082302031DBE2CD3
:1009780020082202031CC62C2008A2022108031CFE
:10098800A303A30201300310A10CA00CFF3E031D1A
:10099800C72C0130FB02031DB82C2308A100220834
:1009A800A0000800F60076080F39F3007308F40079
:1009B8007608F039F3007308F50083120313061460
:1009C8007508F30004300310F30CFF3E031DE72CF9
:1009D80073083B258312031386140D30F300F30BC1
:1009E800F32C83120313861074083B258312031318
:1009F80086140D30F300F30BFF2C831203138610BB
:100A0800080005308A000408840A8207003401348B
:100A180000340A34003464340034E83403341034C5
:100A2800273446343A34203425347534003450346D
:100A38003A342034253475340034FA00F801F901C9
:100A480078087A07F70077088400831300080319E9
:100A5800080078087A07F700770884000008D62489
:100A68000130F8070318F90A0030F907242DF200BD
:100A7800721C422D831203130616452D831203138D
:100A88000612F21C492D86164A2D8612721D4E2D0D
:100A980006174F2D0613F21D532D861708008613CF
:100AA8000800831203132008F2002108F300F40160
:100AB8008E30FA007A08F500F601C0237208831216
:100AC8000313A0007308A1007408A2000800F50031
:100AD80083120313061075083B258312031386142B
:100AE8000630F4003030F300F30B782DF40B782D3A
:100AF80000008312031386100800831203130C1DD1
:100B0800902D1608C5001508C4008F018E0101300C
:100B1800C0000030C1000C1171088A00700E8300FB
:100B2800FE0E7E0E090064008001840A0406031983
:100B380000340406982D00306B2501306B25080021
:08400000FF3FFF3FFF3FFF3FC0
:02400E00503F21
:00000001FF
