:0400000007EF00F016
:1000080016826BED00F058EF01F0000E066E04BE8C
:1000180012EF00F010EF00F018EF00F0036C041E70
:10002800D8B0042A010E066E02BE1FEF00F01DEFC5
:1000380000F025EF00F0016C021ED8B0022A010E74
:10004800061A000E086E000E076E03500410D8B48E
:1000580030EF00F032EF00F05AEF00F0010E056EBD
:100068003AEF00F0D89003360436052A04AE3FEF85
:1000780000F041EF00F036EF00F0D8900736083670
:100088000350015C04500258D8A04DEF00F04FEF28
:1000980000F054EF00F00350015E0450025A07804C
:1000A800D89004320332052E41EF00F00650D8B440
:1000B80060EF00F062EF00F066EF00F0076C081EDA
:1000C800D8B0082A07C001F008C002F012000600E4
:1000D800F2A471EF00F073EF00F0C9EF00F0010E29
:1000E8001424146E000E1520156EEB0E145C010E10
:1000F8001558D8A082EF00F084EF00F088EF00F0E8
:10010800000E156E000E146E0C50145C000E15587F
:10011800D8B091EF00F093EF00F096EF00F08C80EC
:1001280097EF00F08C900D50145C000E1558D8B065
:10013800A0EF00F0A2EF00F0A5EF00F08C82A6EF90
:1001480000F08C920E50145C000E1558D8B0AFEF2A
:1001580000F0B1EF00F0B4EF00F08C84B5EF00F0E0
:100168008C940F50145C000E1558D8B0BEEF00F0F8
:10017800C0EF00F0C3EF00F08C86C4EF00F08C965F
:10018800000ED76E320ED66EF294169211000F0E34
:10019800C11201EC01F0000E47EC01F0B40E36EC90
:1001A80001F0000E25EC01F0B40E14EC01F03D0E48
:1001B8000B6EE10E0A6E400EE82EFED70A2EFCD713
:1001C8000B2EFAD7B40E47EC01F0000E36EC01F016
:1001D800B40E25EC01F0000E14EC01F03D0E0B6E90
:1001E800E10E0A6E400EE82EFED70A2EFCD70B2E23
:1001F800FAD7CFEF00F007EF00F095908C9095922A
:100208008C9295948C9495968C96F28EF28AF294B0
:10021800500ED56ED58E000ED76E320ED66E1200E9
:10022800096E09502E0DF3CF01F0F4CF02F0000E45
:10023800046EB40E036E09EC00F001500E0F0F6E41
:100248001200096E09502E0DF3CF01F0F4CF02F021
:10025800000E046EB40E036E09EC00F001500E0F90
:100268000E6E1200096E09502E0DF3CF01F0F4CF77
:1002780002F0000E046EB40E036E09EC00F001509B
:100288000E0F0D6E1200096E09502E0DF3CF01F0FE
:10029800F4CF02F0000E046EB40E036E09EC00F009
:1002A80001500E0F0C6E120000EE0CF00A0EEE6AF2
:0E02B800E806FDE1169016920001CBEF00F073
:020000040020DA
:08000000FFFFFFFFFFFFFFFF00
:020000040030CA
:0E000000210E191EFF8181FF0FC00FE00F407F
:00000001FF
