:020000000A28CC
:10000800FE00030EF2000A08F300072A0B28F80185
:10001800F90183120313BC01BD01BE01BF01C00178
:10002800C101C201C30183011928B6228312031337
:100038008615061686160617063083120313B800AF
:100048001330B700AD30B600B60B2828B70B2828F8
:10005800B80B282800008312031386110612861293
:100068000613BA01BB01D4228312031306178312A5
:100078000313851D4028412854283A083B04031DD2
:1000880046284728542806131030B6003608F500CD
:1000980001303B22013083120313BA000030BB0049
:1000A800051C5728582859288611851C5C285D2866
:1000B8005E280612051D6128622863288612EA2236
:1000C8007508803AFF0080307F02031D6D280130DB
:1000D8007402031C702871283B2818238312031309
:1000E800B6003608B900AD288615003094221030C5
:1000F80083120313B6003608F50004303B2283123E
:1001080003130617BA01BB013B2886113B280616C4
:100118005A309422103083120313B6003608F500C3
:1001280004303B22831203130617862806123B2845
:100138008616B4309422103083120313B6003608A2
:10014800F50004303B228312031306178628861213
:100158003B283908B600B7013708003A0319B52813
:100168003B283608613A03197828033A0319892885
:10017800013A03198B28073A03199A28013A0319F7
:100188009C28033A0319AB283B280A288312031337
:100198003108031DD028D128FC282D08B2002E08CC
:1001A800B3002F08B4003008B50006300310B20DB4
:1001B800B30DB40DB50DFF3E031DDA283508A300B5
:1001C8003408A2003308A1003208A0000030A700BC
:1001D8003D30A6000930A5000030A4009F218312FD
:1001E80003132008FF3E83160313990018112629CC
:1001F8002D08B2002E08B3002F08B4003008B5004F
:1002080004300310B20DB30DB40DB50DFF3E031D40
:1002180005293508A3003408A2003308A1003208D4
:10022800A0000030A7003D30A6000930A50000302E
:10023800A4009F21831203132008FF3E8316031393
:100248009900181518139816181298148312031386
:100258009817181318161811981083160313861474
:100268000615080083120313A801A31F3C293D2982
:100278004429A209A309A20A0319A30AA801A80AE2
:10028800A51F472948295129A409A509A40A031922
:10029800A50A0130A6002608A806A901AA01220875
:1002A80023040319582959299029A701A70A67295E
:1002B80001300310A20DA30DFF3E031D5D2901307F
:1002C800A6002608A707A31F6A296B295C29013005
:1002D8000310A90DAA0DFF3E031D6C292308250252
:1002E800031D782922082402031C7B297C298329E1
:1002F8002208A4022308031CA503A502291401301F
:100308000310A30CA20CFF3E031D84290130A70291
:10031800031D8F2990296B292808031994299529E9
:100328009A29A909AA09A90A0319AA0A2A08A30045
:100338002908A2000800003083120313AB00003024
:10034800AA000030A9000030A800230822042104D4
:1003580020040319B029B129FE29AC01AC0AC1292E
:100368000130F4000310A00DA10DA20DA30DF40B94
:10037800B6290130F4007408AC07A31FC429C529A5
:10038800B4290130F4000310A80DA90DAA0DAB0D76
:10039800F40BC72923082702031DDC29220826029B
:1003A800031DDC2921082502031DDC29200824025D
:1003B800031CDF29E029EF292008A4022108031CD7
:1003C800210FA5022208031C220FA6022308031CE2
:1003D800230FA702281401300310A30CA20CA10CB0
:1003E800A00CFF3E031DF0290130AC02031DFD29BE
:1003F800FE29C5292B08A3002A08A2002908A10064
:100408002808A00008000B1D0A2A0B2A342A78089D
:10041800013EF80079080318013E003EF90000305B
:1004280079022A3003197802031C1B2A1C2A1E2A67
:10043800F801F901831203134308F000F101710870
:100448007902031D292A7008780203182C2A2D2AFC
:100458002F2A8617302A8613053081000B118B1638
:1004680073088A00720E8300FE0E7E0E0900831246
:100478000313A000A101A201A101A201502A210891
:100488002007840000230C23013083120313A107E3
:100498000318A20A0030A2072208803AF60080302A
:1004A8007602031D592A7508210203185C2A5D2A61
:1004B800682A831203132108200784000023003AC6
:1004C800031D672A682A432A080083120313A00120
:1004D800A101741C702A712A792A760883120313E1
:1004E800A0070318A10A7708A10701300310F60D29
:1004F800F70DFF3E031D7A2A01300310F50CF40CAA
:10050800FF3E031D812A74087504031D8C2A8D2A59
:100518006D2A831203132108F5002008F40008004F
:1005280083120313AE00B430A2000030A3002E08DB
:10053800AB00AC012B08F4002C08F5000330F600E2
:100548000030F7006922750883120313A5007408A8
:10055800A4003621831203132208013EAD002D08A2
:10056800C3000800831203131F149F141F1583165A
:1005780003130514851405158515861106128612B0
:1005880006138312031386010030B0000030AF0059
:100598002530AE008030AD00B101B10ACA20080094
:1005A8008316031386138312031386138B018B1789
:1005B8008B160B1183160313811201128111F83067
:1005C8008105053083120313810008008312031389
:1005D8000C0EA000200C0139A100A2012108F40092
:0605E8002208F5000800E6
:1006000003308A000408840A8207003478340034F6
:100610000034793400340034F40083160313981C3A
:10062000122B132B0D2B740883120313990008004F
:10063000EA227408750403191E2B1F2B182B831232
:0606400003131A08080074
:08400000FF3FFF3FFF3FFF3FC0
:02400E00503F21
:00000001FF
