:10000000FE2FFF1B0B2883137F1883170008840A19
:100010000319FF0A080000308A000408840A8207D6
:1000200000340A340D345234653463346534693431
:10003000763465346434203400340034203462343F
:1000400079347434653473343A34203400340034F1
:100050000A340D34003400343E342034003400348B
:100A2E00831203130C0EF000700C01390800172509
:100A3E00003A0319232D242D1E2D831203131A0899
:100A4E000800F00083160313981C2E2D2F2D292D30
:100A5E00700883120313990008008316031386107F
:100A6E00003083120313A3000030A2002530A10032
:100A7E008030A000A401A40A972708008312031354
:100A8E00A800A51F4B2D4C2D5C2D2D30FD002808E8
:100A9E0084007D08831380000130FD007D08A807C7
:100AAE00A409A509A40A0319A50A2508F900240812
:100ABE00F8002708FB002608FA002808312708004E
:100ACE007008710403196C2D6D2D9C2DF501F50A1E
:100ADE007B2D01300310F00DF10DFF3E031D712D26
:100AEE000130F4007408F507F11F7E2D7F2D702D57
:100AFE0071087302031D852D70087202031C882D68
:100B0E00892D8F2D7008F2027108031CF303F30276
:100B1E0001300310F10CF00CFF3E031D902D01303F
:100B2E00F502031D9B2D9C2D7F2D7308F10072087D
:100B3E00F0000800F400F601C82D1E25F200720820
:100B4E00F50075080319AC2DAD2DDA2D0A3075069A
:100B5E000319B22DB32DDA2D0D307506031DB82DE8
:100B6E00B92DBA2DDA2D7508F20076087407F30048
:100B7E00730884007208831380000130F20072083B
:100B8E00F6077108FF3EF200FF3003180030F30045
:100B9E007308803A803C031DD62D72087602031C22
:100BAE00D92DDA2DA42D76087407F200720A84006E
:100BBE008313800176080800F501F60170087104B0
:100BCE000319EA2DEB2D222EF701F70AF92D01302C
:100BDE000310F00DF10DFF3E031DEF2D0130F4005B
:100BEE007408F707F11FFC2DFD2DEE2D01300310BB
:100BFE00F50DF60DFF3E031DFE2D71087302031D4C
:100C0E000A2E70087202031C0D2E0E2E152E700861
:100C1E00F2027108031CF303F30275140130031082
:100C2E00F10CF00CFF3E031D162E0130F702031DD2
:100C3E00212E222EFD2D7608F1007508F0000800F9
:100C4E00F701F801F701F801462E77087107F50054
:100C5E007208F4000318F40AF71F362EF403740812
:100C6E00F600760883120313FF0075088400012036
:100C7E0028250130F7070318F80A0030F80778081E
:100C8E00803AF40080307402031D4F2E73087702F1
:100C9E000318522E532E6B2E77087107F50072082B
:100CAE00F4000318F40AF71F5D2EF4037408F6001F
:100CBE00760883120313FF00750884000120003AA2
:100CCE00031D6A2E6B2E2C2E080034251C30F100CD
:100CDE008030F200103083120313A9002908F300AC
:100CEE002726103083120313A9002908F1002C3097
:100CFE00A12583120313AA00AB012A08C4002B08F6
:100D0E00C5004508A5004408A4000A30A60000301E
:100D1E00A7003C3045250130F1008030F200103044
:100D2E0083120313A9002908F30027263C30F10093
:100D3E000030F200103083120313A9002908F300CB
:100D4E0027260E30F1008030F2001030831203138C
:100D5E00A9002908F30027262C30F1000030F200FC
:100D6E00831203134408A9002908F300272618301C
:100D7E00F1008030F200103083120313A90029080D
:100D8E00F30027266D2E00280030FC000030FB00FB
:100D9E000030FA000030F900730872047104700418
:100DAE000319DA2EDB2E282FFD01FD0AEB2E013062
:100DBE00F8000310F00DF10DF20DF30DF80BE02E0F
:100DCE000130F8007808FD07F31FEE2EEF2EDE2E11
:100DDE000130F8000310F90DFA0DFB0DFC0DF80BA8
:100DEE00F12E73087702031D062F72087602031D7B
:100DFE00062F71087502031D062F70087402031C5E
:100E0E00092F0A2F192F7008F4027108031C710F95
:100E1E00F5027208031C720FF6027308031C730F9F
:100E2E00F702791401300310F30CF20CF10CF00CF4
:100E3E00FF3E031D1A2F0130FD02031D272F282F01
:100E4E00EF2E7C08F3007B08F2007A08F100790897
:100E5E00F000080083120313A3007908A10078089C
:100E6E00A0007B08F1007A08F0002108F3002008AA
:100E7E00F200E325710883120313A1007008A0008D
:100E8E000130FC007C08A30720082104031D502F0D
:100E9E00512F382F23088400831380010130A302C1
:100EAE007B08F1007A08F0007908F3007808F20068
:100EBE0067257008FC007C0883120313A2007B08D0
:100ECE00F1007A08F0007908F3007808F200E325C3
:100EDE007108F9007008F8000A3083120313220219
:100EEE00031C7A2F7B2F7F2F0730FC007C08A20774
:100EFE003030FC007C08A2072208FC002308840086
:100F0E007C08831380000130A30278087904031D46
:100F1E00912F922F572F0130FC007C08A307080059
:100F2E00831203132408031D9D2F9E2FC72F200805
:100F3E00A5002108A6002208A7002308A800063055
:100F4E000310A50DA60DA70DA80DFF3E031DA72F7F
:100F5E002808F3002708F2002608F1002508F00003
:100F6E000030F7003D30F6000930F5000030F40097
:100F7E00CB267008FF3E8316031399001811EF2F2E
:100F8E002008A5002108A6002208A7002308A80013
:100F9E0004300310A50DA60DA70DA80DFF3E031DD1
:100FAE00D02F2808F3002708F2002608F1002508A4
:100FBE00F0000030F7003D30F6000930F50000304B
:100FCE00F400CB267008FF3E831603139900181504
:100FDE00181398161812831203139817181318164D
:100FEE001811981083160313061786130800830131
:020FFE006C2E57
:08400000FF3FFF3FFF3FFF3FC0
:02400E00503F21
:00000001FF
