:10000000FE2FFF1B0B2883137F1883170008840A19
:100010000319FF0A080000308A000408840A8207D6
:1000200000340A340D345034723465346E34643420
:10003000693465346E3464346F3420344C34653440
:1000400064342034003400340A340D3441347034C4
:100050006134673461346E3464346F3420344C342A
:10006000653464342034003400340A340D3452349E
:1000700065346334653469347634653464342034EB
:100080000034003420346234793474346534733489
:100090003A342034003400340A340D34003400344F
:0800A0003E342034003400342A
:10093400831203130C0EF000700C013908009A2482
:10094400003A0319A62CA72CA12C831203131A080E
:100954000800F00083160313981CB12CB22CAC2CA5
:1009640070088312031399000800831203131F14E1
:100974009F141F1583160313861085018312031316
:1009840085010030A3000030A2002530A100803092
:10099400A000A401A40AC226080083120313A8001D
:1009A400A51FD52CD62CE62C2D30FD00280884005C
:1009B4007D08831380000130FD007D08A807A40989
:1009C400A509A40A0319A50A2508F9002408F800B2
:1009D4002708FB002608FA0028085C26080070088F
:1009E40071040319F62CF72C262DF501F50A052DB3
:1009F40001300310F00DF10DFF3E031DFB2C0130FF
:100A0400F4007408F507F11F082D092DFA2C71085C
:100A14007302031D0F2D70087202031C122D132D77
:100A2400192D7008F2027108031CF303F30201305C
:100A34000310F10CF00CFF3E031D1A2D0130F502DA
:100A4400031D252D262D092D7308F1007208F000D1
:100A54000800F400F601522DA124F2007208F500FA
:100A640075080319362D372D642D0A3075060319C0
:100A74003C2D3D2D642D0D307506031D422D432D57
:100A8400442D642D7508F20076087407F30073088A
:100A940084007208831380000130F2007208F607A4
:100AA4007108FF3EF200FF3003180030F3007308B2
:100AB400803A803C031D602D72087602031C632D6E
:100AC400642D2E2D76087407F200720A84008313B5
:100AD400800176080800F501F60170087104031915
:100AE400742D752DAC2DF701F70A832D01300310F9
:100AF400F00DF10DFF3E031D792D0130F400740853
:100B0400F707F11F862D872D782D01300310F50D81
:100B1400F60DFF3E031D882D71087302031D942DED
:100B240070087202031C972D982D9F2D7008F202F5
:100B34007108031CF303F302751401300310F10C64
:100B4400F00CFF3E031DA02D0130F702031DAB2D59
:100B5400AC2D872D7608F1007508F0000800F70128
:100B6400F801F701F801D02D77087107F500720834
:100B7400F4000318F40AF71FC02DF4037408F600F8
:100B8400760883120313FF00750884000120AB2448
:100B94000130F7070318F80A0030F8077808803A9C
:100BA400F40080307402031DD92D730877020318F2
:100BB400DC2DDD2DF52D77087107F5007208F400A2
:100BC4000318F40AF71FE72DF4037408F6007608F7
:100BD40083120313FF00750884000120003A031DEB
:100BE400F42DF52DB62D08000030FC000030FB007C
:100BF4000030FA000030F9007308720471047004C4
:100C04000319052E062E532EFD01FD0A162E013062
:100C1400F8000310F00DF10DF20DF30DF80B0B2E8F
:100C24000130F8007808FD07F31F192E1A2E092E3B
:100C34000130F8000310F90DFA0DFB0DFC0DF80B53
:100C44001C2E73087702031D312E72087602031DD1
:100C5400312E71087502031D312E70087402031CB5
:100C6400342E352E442E7008F4027108031C710FC3
:100C7400F5027208031C720FF6027308031C730F4B
:100C8400F702791401300310F30CF20CF10CF00CA0
:100C9400FF3E031D452E0130FD02031D522E532E2F
:100CA4001A2E7C08F3007B08F2007A08F100790818
:100CB400F000080083120313A3007908A100780848
:100CC400A0007B08F1007A08F0002108F300200856
:100CD400F2006D25710883120313A1007008A000AF
:100CE4000130FC007C08A30720082104031D7B2E8F
:100CF4007C2E632E23088400831380010130A30219
:100D04007B08F1007A08F0007908F3007808F20013
:100D1400F1247008FC007C0883120313A2007B08F2
:100D2400F1007A08F0007908F3007808F2006D25E4
:100D34007108F9007008F8000A30831203132202C4
:100D4400031CA52EA62EAA2E0730FC007C08A207A1
:100D54003030FC007C08A2072208FC002308840031
:100D64007C08831380000130A30278087904031DF2
:100D7400BC2EBD2E822E0130FC007C08A307080087
:100D8400831203132408031DC82EC92EF22E200833
:100D9400A5002108A6002208A7002308A800063001
:100DA4000310A50DA60DA70DA80DFF3E031DD22E01
:100DB4002808F3002708F2002608F1002508F000AF
:100DC4000030F7003D30F6000930F5000030F40043
:100DD400F6257008FF3E83160313990018111A2F85
:100DE4002008A5002108A6002208A7002308A800BF
:100DF40004300310A50DA60DA70DA80DFF3E031D7D
:100E0400FB2E2808F3002708F2002608F100250825
:100E1400F0000030F7003D30F6000930F5000030F6
:100E2400F400F6257008FF3E831603139900181585
:100E3400181398161812981483120313981718137A
:100E44001816181198108316031386140615080033
:100E5400B724831203130514851405150730850080
:100E64004030F1008030F2001030A9002908F3006E
:100E7400B125103083120313A9002908F1002C3086
:100E84002B2583120313AA00AB012A08C5002B08E3
:100E9400C6004608A5004508A4000A30A600003094
:100EA400A7003C30CF242530F1008030F200103010
:100EB40083120313A9002908F300B1253C30F10083
:100EC4000030F200103083120313A9002908F30044
:100ED400B1253230F1008030F20010308312031358
:100EE400A9002908F300B1252C30F1000030F200EC
:100EF400831203134508A9002908F300B1253C30E7
:100F0400F1008030F200103083120313A900290885
:100F1400F300B125831203132C08A9002908C40087
:100F2400E12F0130F1008030F2001030A9002908CF
:100F3400F300B125831203130514322F1430F1008A
:100F44008030F2001030A9002908F300B125831283
:100F540003130510322F0130F1008030F2001030FD
:100F6400A9002908F300B125831203138514322F35
:100F74001430F1008030F2001030A9002908F30089
:100F8400B125831203138510322F0130F100803014
:100F9400F2001030A9002908F300B12583120313CD
:100FA4000515322F1430F1008030F2001030A90002
:100FB4002908F300B125831203130511322F4408C5
:100FC400A900AA012A08003A0319E92F322F290897
:100FD400613A0319932F033A0319A02F013A031915
:100FE400AD2F073A0319BA2F013A0319C72F033A51
:0C0FF4000319D42F322F002883012A2F6C
:08400000FF3FFF3FFF3FFF3FC0
:02400E00503F21
:00000001FF
