:020000000A28CC
:10000800FE00030EF0000A08F1006D2C0B285325A2
:10001800D1005425D20083134230840051304B253F
:10002800FA01FB018301F928831203132408AA00AB
:100038002508AB002608AC0003102B0D2C0DAD00D5
:100048002D08AE002E08031D2A282B283228003040
:10005800A4000030A5000030A600F8282708AA0050
:100068002808AB002908AC0003102B0D2C0DAD009F
:100078002D08B3003308031D422843284A280030BE
:10008800A4000030A5000030A600F82833087B3E05
:10009800AA002A08AE072408AA002508AB002608EB
:1000A800AC0010300310AC0CAB0CAA0CFF3E031DC7
:1000B80056282A08AD002D08B3002708AA002808EA
:1000C800AB002908AC0010300310AC0CAB0CAA0C28
:1000D800FF3E031D68282A08AD002D08B3068030AE
:1000E800AA002A08B305A517A817FF30A705FF30EF
:1000F800A8050030A9050030AF000030B00000307E
:10010800B1000730AA002A08B200241C8C288D28C8
:100118009D282708AF07280803110318280A031980
:100128009628B007290803110318290A03199D28DE
:10013800B10701300310A60CA50CA40CFF3E031D4B
:100148009E2801300310A70DA80DA90DFF3E031D21
:10015800A6280130B202031DB228B3288928093025
:10016800AA002A08B200241CBA28BB28CB282708D2
:10017800AF07280803110318280A0319C428B00771
:10018800290803110318290A0319CB28B1070130DC
:100198000310A60CA50CA40CFF3E031DCC280130AF
:1001A8000310B10CB00CAF0CFF3E031DD428013076
:1001B800B202031DE028E128B7282F08F200300812
:1001C800F3003108F4002E08AA002A08F5003308C5
:1001D800AB002B08F6002123720883120313A40036
:1001E8007308A5007408A6000800A024831203134E
:1001F8000616861606178617063083120313C000E4
:100208001330BF00AD30BE00BE0B0829BF0B082954
:10021800C00B082900008312031306128612061366
:1002280086130B25831203138617831203134A03BD
:100238004B04031D202921295B293830A40086306E
:10024800A5003530A6004D08A1004C08A000F524F3
:10025800831203132008A7002108A8002208A90078
:100268001820831203132408CE002508CF0026087F
:10027800D0000030A3008030A4003F30A5004E0815
:10028800A0004F08A1005008A200D7218312031331
:100298002008B0002108B1002208B200952283127C
:1002A80003133108D2003008D100CA01CB01053050
:1002B8005202153003195102031C632964296C2961
:1002C80086131030BE003E08F3000130CD246D299E
:1002D800861783120313051C722973297429861340
:1002E800851C7729782979290612051D7C297D29FD
:1002F8007E2986121B257308803AFF0080307F0212
:10030800031D882901307202031C8B298C291929A5
:10031800402583120313BE003E08C100BA29861780
:100328001030BE003E08F3000430CD2483120313BE
:10033800061719298613192906161030BE003E081B
:10034800F3000430CD248312031306179D290612E7
:10035800192986161030BE003E08F3000430CD245B
:100368008312031306179D29861219294108BE0016
:10037800BF013F08003A0319C22919293E08613A0A
:1003880003199329033A03199E29013A0319A0294D
:10039800073A0319AB29013A0319AD29033A03199E
:1003A800B82919290A28831203132308A600240848
:1003B800A7002508A8000310270D280DA900290863
:1003C800AE002E08031DE929EA29F1290030A00012
:1003D8000030A1000030A200942A2008A6002108BD
:1003E800A7002208A8000310270D280DA900290836
:1003F800AF002F08031D012A022A092A0030A00095
:100408000030A1000030A200942A0030AB00003078
:10041800AC000030AD0089302F07A6002608AE02D8
:100428002308A6002408A7002508A80010300310F8
:10043800A80CA70CA60CFF3E031D1B2A2608A90022
:100448002908AF002008A6002108A7002208A80054
:1004580010300310A80CA70CA60CFF3E031D2D2A74
:100468002608A9002908AF068030A6002608AF058F
:10047800A417FF30A305FF30A4050030A505A11778
:10048800FF30A005FF30A1050030A2051830A600F6
:100498002608AA0001300310AB0DAC0DAD0DFF3ED0
:1004A800031D4F2A22082502031D602A2108240261
:1004B800031D602A20082302031C632A642A6F2A6A
:1004C8002008A3022108031C210FA4022208031CF0
:1004D800220AA5022B1401300310A30DA40DA50DAB
:1004E800FF3E031D702A0130AA02031D7C2A7D2AC3
:1004F8004E2A2B08F2002C08F3002D08F4002E08D1
:10050800A6002608F5002F08A7002708F6002123D3
:10051800720883120313A0007308A1007408A200D4
:100528000800831203133008B4003108B5003208FC
:10053800B6000310350D360DB7003708BD003D086D
:10054800031DA72AA82AB12A0030B3000030B20040
:100558000030B1000030B000202B3008B400310862
:10056800B5003208B60017300310B60CB50CB40C41
:10057800FF3E031DB82A3408B7003708B800B11782
:10058800FF30B005FF30B1050030B2053008B900C2
:100598003108BA003208BB00BC018E30BD02BD1F55
:1005A800D62AD72AF12A3D08803A8F3E0318DD2A39
:1005B800DE2ADF2AA82A01300310BC0CBB0CBA0CB7
:1005C800B90CFF3E031DE02A0130B4003408BD0712
:1005D800031DEF2AF02ADF2A082B18303D02031CDE
:1005E800F62AF72A032BA82A0130B4000310B90D04
:1005F800BA0DBB0DBC0DB40BFA2A0130BD023D0883
:10060800031D072B082BF82A380803190C2B0D2B70
:10061800182BB909BA09BB09BC09B90A0319BA0ADE
:100628000319BB0A0319BC0A3C08B3003B08B20013
:100638003A08B1003908B000080075080319252BDD
:10064800262B2D2B740873047204031D2C2B2D2BC1
:10065800402B0030F2000030F3000030F4009C2BF7
:100668000130F7007708F50701300310F40CF30C9C
:10067800F20CFF3E031D392BFE307405031D452B7C
:10068800462B342B5D2B0130F7007708F507013036
:10069800F207003003180130F30700300318013067
:1006A800F40701300310F40CF30CF20CFF3E031DA9
:1006B800562BFF307405031D622B632B472B6E2BC3
:1006C8000130F50201300310F20DF30DF40DFF3E79
:1006D800031D672BF31B712B722B782B02307502CD
:1006E8000318772B782B642B75187B2B7C2B822B8C
:1006F800FF30F2057F30F305FF30F4050310F50CE9
:100708007508F700F801F90110300310F70DF80D1E
:10071800F90DFF3E031D892B7708F2047808F304CE
:100728007908F404760803199A2B9B2B9C2BF41751
:100738000800831203132A08031DA32BA42BCD2B17
:100748002608AB002708AC002808AD002908AE0031
:1007580006300310AB0DAC0DAD0DAE0DFF3E031D05
:10076800AD2B2E08F5002D08F4002C08F3002B08FB
:10077800F2000030F9003D30F8000930F700003091
:10078800F60005247208FF3E83160313990018111A
:10079800F52B2608AB002708AC002808AD0029086F
:1007A800AE0004300310AB0DAC0DAD0DAE0DFF3E29
:1007B800031DD62B2E08F5002D08F4002C08F30095
:1007C8002B08F2000030F9003D30F8000930F7003E
:1007D8000030F60005247208FF3E831603139900C3
:1007E80018151813981618129814831203139817CB
:1007F8001813181618119810831603138614061563
:100808000800003083120313A4000030A300003056
:10081800A2000030A100750874047304720403195F
:10082800162C172C642CA501A50A272C0130A00032
:100838000310F20DF30DF40DF50DA00B1C2C013077
:10084800A0002008A507F51F2A2C2B2C1A2C0130F4
:10085800A0000310A10DA20DA30DA40DA00B2D2C1B
:1008680075087902031D422C74087802031D422C76
:1008780073087702031D422C72087602031C452C6C
:10088800462C552C7208F6027308031C730FF702E6
:100898007408031C740FF8027508031C750FF9021D
:1008A800211401300310F50CF40CF30CF20CFF3E8C
:1008B800031D562C0130A502031D632C642C2B2C20
:1008C8002408F5002308F4002208F3002108F200A8
:1008D8000800831203130C1D722C732C7E2C16082F
:1008E800CD001508CC008F018E010130CA00003000
:1008F800CB000C110B1D812C822C992C7A08013EFF
:10090800FA007B080318013E003EFB0000307B0222
:100918002A3003197A02031C922C932C952CFA0185
:10092800FB01053081000B118B1671088A00700ECF
:100938008300FE0E7E0E0900053083120313970014
:1009480090018B170B17831603130C1583120313CF
:100958000C118E018F0110141F149F141F1583167C
:1009680003130514851405158515861506128612B8
:10097800061386138312031386010030A900003082
:10098800A8002530A7008030A600AA01AA0A9D2346
:100998000800F500F601F701F601F701DE2C7608EC
:1009A80075078400282534250130F6070318F70A4F
:1009B8000030F7077708803AF40080307402031D8E
:1009C800E72C730876020318EA2CEB2CF42C760833
:1009D800750784002825003A031DF32CF42CD32C2A
:1009E8000800831203132008F2002108F300F40121
:1009F8008E30A3002308F500F60121237208831224
:100A08000313A0007308A1007408A20008008B015A
:100A18008B178B160B118316031381120112811188
:100A2800F830810505308312031381000800831212
:100A380003130C0EF400740C0139F500F601750867
:100A4800F2007608F300080005308A000408840ADA
:100A580082070034783400340034793400340034A8
:100A6800F20083160313981C3A2D3B2D352D72087E
:100A780083120313990008001B25720873040319D5
:100A8800462D472D402D831203131A0808006400D1
:100A98008001840A04060319003404064C2DDC3452
:020AA800053413
:08400000FF3FFF3FFF3FFF3FC0
:02400E00503F21
:00000001FF
