:10000000FE2F00308A000408840A82070034483436
:100010006F346C34613420346D3475346E34643430
:0A0020006F3420340D340A3400342C
:100D8A00F000831203130C1ECB2ECC2EC62E700835
:100D9A0099000800003083120313A9000030A8004C
:100DAA002530A7008030A600F7260130DE26DA2E8D
:100DBA000028F300F101F201ED2E71087307840097
:100DCA000120C5260130F1070318F20A0030F207A4
:100DDA007108730784000120003A031DF52EF62ED0
:100DEA00E22E0800831203132608AA002708AB0084
:100DFA002808AC002908AD0004300310AA0DAB0D79
:100E0A00AC0DAD0DFF3E031D022F2D08F3002C087B
:100E1A00F2002B08F1002A08F0002608AE00270885
:100E2A00AF002808B0002908B10004300310AE0D45
:100E3A00AF0DB00DB10DFF3E031D1B2F0030B200E8
:100E4A000930B3003D30B4000030B5002E08B202BC
:100E5A002F08031C2F0F322F332FB3023008031C25
:100E6A00300F382F392FB4023108031C310F3E2FAF
:100E7A003F2FB5023508F7003408F6003308F500AD
:100E8A003208F40061277308FC007208FB0071083D
:100E9A00FA007008F900831603131813981618122B
:100EAA00181598148312031398171813181679082B
:100EBA00831603139900080083120313A101F31F79
:100ECA00672F682F752FF009F109F209F309F00A63
:100EDA000319F10A0319F20A0319F30AA101A10A73
:100EEA00F71F782F792F882FF409F509F609F709E2
:100EFA00F40A0319F50A0319F60A0319F70A013065
:100F0A00F8007808A1060030A5000030A4000030DF
:100F1A00A3000030A200730872047104700403195C
:100F2A00972F982FE52FA001A00AA82F0130F800CB
:100F3A000310F00DF10DF20DF30DF80B9D2F01309A
:100F4A00F8007808A007F31FAB2FAC2F9B2F0130B6
:100F5A00F8000310A20DA30DA40DA50DF80BAE2FDA
:100F6A0073087702031DC32F72087602031DC32F6D
:100F7A0071087502031DC32F70087402031CC62F63
:100F8A00C72FD62F7008F4027108031C710FF502DF
:100F9A007208031C720FF6027308031C730FF70220
:100FAA00221401300310F30CF20CF10CF00CFF3E8A
:100FBA00031DD72F0130A002031DE42FE52FAC2F0C
:100FCA0021080319E92FEA2FF52FA209A309A40979
:100FDA00A509A20A0319A30A0319A40A0319A50A4F
:100FEA002508F3002408F2002308F1002208F00083
:060FFA0008008301CF2E68
:08400000FF3FFF3FFF3FFF3FC0
:02400E00503F21
:00000001FF
