:04000000DFEF04F03A
:1008000000486F6C6120646573646520656C2050DE
:0D0810004943313846343535300D0A0000BB
:10081E00000E096E000E0A6E000E0B6E000E0C6EB0
:10082E000550061007100810D8B420EF04F022EF80
:10083E0004F058EF04F0010E0D6E2CEF04F0D8907A
:10084E0005360636073608360D2A08AE31EF04F0A7
:10085E0033EF04F026EF04F0D89009360A360B3643
:10086E000C360550015C06500258075003580850CC
:10087E000458D8A045EF04F047EF04F050EF04F011
:10088E000550015E0650025A0750035A0850045A8A
:10089E000980D89008320732063205320D2E33EF1A
:1008AE0004F009C001F00AC002F00BC003F00CC046
:1008BE0004F01200949C948E240EAC6E900EAB6ECF
:1008CE00000EB86EB886000E016E6C0E026EDC0E57
:1008DE00036E020E046E0EC012F00FC013F010C0A5
:1008EE0014F011C015F0020ED890123613361436CD
:1008FE001536E82E7BEF04F012C005F013C006F09B
:10090E0014C007F015C008F00FEC04F0FF0E012420
:10091E00166EFF0E0220176E16C0AFFF1750B06E88
:10092E0012000F0EC112800E0E6E250E0F6E000EEF
:10093E00106E000E116E61EC04F0010E026E080EC8
:10094E00036EB9EC04F00D0E196E2D0E186ED80E46
:10095E00E82EFED7182EFCD7192EFAD7A4EF04F0E6
:10096E0000EF00F0C5EF04F002C0F6FF03C0F7FF82
:10097E000800F550D4EC04F0024A032A02C0F6FF38
:10098E0003C0F7FF0800F5500009D8A4D1EF04F01A
:10099E00D3EF04F0BBEF04F01200016EACA2DAEF5D
:1009AE0004F0DCEF04F0D5EF04F001C0ADFF12004F
:0E09BE00000EF86E080EF76E000198EF04F0C0
:020000040020DA
:08000000FFFFFFFFFFFFFFFF00
:020000040030CA
:0E000000210E191EFF8181FF0FC00FE00F407F
:00000001FF
